:020000040800F2
:1000000000000220210F0008650F0008650F00089E
:10001000650F0008650F0008650F0008000000006C
:10002000000000000000000000000000650F000854
:10003000650F000800000000650F0008650F00084C
:10004000650F0008650F0008650F0008650F0008C0
:10005000650F0008650F0008650F0008650F0008B0
:10006000650F0008650F0008650F0008650F0008A0
:10007000650F0008650F0008650F0008650F000890
:10008000650F0008650F0008650F0008650F000880
:10009000650F0008650F0008650F0008650F000870
:1000A000650F0008650F0008650F0008650F000860
:1000B000650F0008650F0008650F0008650F000850
:1000C000650F0008650F0008650F0008650F000840
:1000D000650F0008650F0008650F0008650F000830
:1000E000650F0008650F0008650F0008650F000820
:1000F000650F0008650F0008650F0008650F000810
:10010000650F0008650F0008650F0008650F0008FF
:10011000650F0008650F0008650F0008650F0008EF
:10012000650F0008650F0008650F0008650F0008DF
:10013000650F0008650F0008650F0008650F0008CF
:10014000650F0008650F0008650F0008650F0008BF
:10015000650F0008650F0008650F0008650F0008AF
:10016000650F0008650F0008650F0008650F00089F
:10017000650F0008650F0008650F0008650F00088F
:08018000650F0008650F00087F
:1001880010B5054C237833B9044B13B10448AFF3C9
:1001980000800123237010BD3C08002000000000EF
:1001A800CC100008084B10B51BB108480849AFF33C
:1001B80000800848036803B910BD074B002BFBD02B
:1001C800BDE81040184700BF00000000CC10000830
:1001D800400800203C08002000000000024B13B13A
:1001E800024800F005B8704700000000050200084A
:1001F800014600200246034600F016B838B5084B01
:10020800084DED1AAC1018BFED1805D0013C55F893
:10021800043D9847002CF9D1BDE8384000F058BF9C
:10022800EC100008F01000082DE9F047254C25686F
:10023800D5F848410646884692469946CCB3606848
:100248001F2818DC431C7EB104EB80050121C5F88A
:1002580088A0D4F8887101FA00F21743022EC4F876
:100268008871C5F808911ED00230636044F8208078
:100278000020BDE8F087144B03B34FF4C87000F0BA
:1002880015FF0446D0B1D5F84831002780E888002A
:10029800C5F8484138460123C4F88871C4F88C7100
:1002A800002EE1D0D0E7D4F88C110A43C4F88C2191
:1002B800DAE705F5A674C5F84841C0E74FF0FF3006
:1002C800BDE8F087C8100008B51000080A4A08B54C
:1002D800136873B118446946884202D810601846FA
:1002E80008BD00F00DF80C2303604FF0FF331846EB
:1002F80008BD024B1360EDE7580800209408002061
:10030800014B1868704700BF280400202DE9F04F02
:1003180001F10B05162D83B0064627D935F00705E0
:1003280000F1B680A94200F2B38000F081FAB5F579
:10033800FC7F22D2C24FE80807EBC003DC689C426E
:1003480000F0C8816368E168A56823F003032344CB
:1003580030465A68E96042F001028D605A6000F048
:1003680069FA0834204603B0BDE8F08F102900F27E
:100378008F8000F05DFA1025DCE7680A00F08F80B6
:10038800042800F25481A80938304100AC4F07EB2B
:100398008101CC68A14206D10CE0002A80F282805B
:1003A800E468A14206D0636823F003035A1B0F2AAE
:1003B800F3DD01380130A2493C6901F1080E7445AA
:1003C80000F07D81636823F003035A1B0F2A00F3B2
:1003D8006381002AC1F814E0C1F810E073DAB3F5BC
:1003E800007F80F03981DB0801EBC3084FEAA30CDA
:1003F8004A68D8F80890C4F80890012303FA0CF367
:100408001343C4F80C804B60C8F80840C9F80C4086
:100418008210012494409C4262D8234206D120F0E5
:1004280003006400234200F10400FAD007EBC0087F
:10043800C4468146DCF80C309C4507D141E10029CF
:1004480080F25181DB689C4500F03B815A6822F0BC
:100458000302511B0F29F2DD1C46D3F80CC054F8D7
:10046800088F5A1945F0010941F00105C3F80490B5
:100478003046C8F80CC0CCF808807A613A61C2F8F6
:100488000CE0C2F808E05560515000F0D3F969E774
:1004980000240C232046336003B0BDE8F08F7E2192
:1004A8003F2073E72344E1685A68A56842F00102D7
:1004B800E96030468D605A6000F0BCF90834204687
:1004C80003B0BDE8F08F234430465A6842F0010279
:1004D8005A6000F0AFF90834204603B0BDE8F08F49
:1004E800BC68636823F00308454504D8C5EB0803D6
:1004F8000F2B00F38C80534BDFF858A11A68DAF8F9
:10050800003001332A4404EB080B00F0508102F557
:1005180080520F3222F47F6222F00F0211463046D9
:10052800019200F089F9B0F1FF3F8146019A00F08D
:100538004781834500F2EE80434B1968CB4511444F
:10054800196000F04281DAF80000DFF808E10130B4
:100558001BBFCBEB090B5944CEF80090196019F07A
:10056800070100F00781C1F10800C1F580518144FD
:1005780008314A44C2F30B02C2EB010A5146304625
:10058800019300F059F9431C019B00F02C81C9EB41
:100598000002524442F001021968C7F80890514419
:1005A800BC42C9F804201960DFF89CA016D0B8F145
:1005B8000F0F40F2EE806268A8F10C0323F00703E6
:1005C800E01802F001024FF0050E1A430F2B62608B
:1005D800C0F804E0C0F808E000F209811B4BBC68D1
:1005E8001A68914288BF1960194B1A68914262686B
:1005F80088BF196022F003029542A2EB050301D8D7
:100608000F2B04DC304600F015F90024AAE6621925
:1006180043F0010345F0010565603046BA60536058
:1006280000F008F90834204603B0BDE8F08F14281C
:1006380068D9542800F29780280B6E304100A5E64F
:100648002C040020640800206808002060080020AE
:100658005C080020380800205A0A042A55D9142AB0
:1006680000F2A7805B324FEA420C07EB8C0CDFF8F4
:10067800BC81DCF8081061457FD04A6822F003028B
:10068800934202D289688C45F7D1CA687B68E260D8
:10069800A1609460CC60BBE6631942F0010745F0A5
:1006A8000105656030464B610B61C3F80CE0C3F887
:1006B80008E05F609A50083400F0BCF852E64B68D6
:1006C800A6E609F1010919F0030F0CF1080C7FF4F3
:1006D800B1AE2CE004F108036469A34208BF0230FC
:1006E8003FF469AE2EE61A441C465168DB6854F89C
:1006F800085F41F0010151603046EB609D6000F0F9
:1007080099F82FE65B30410040E69A0938324FEA03
:10071800420CAAE7BC42454B3FF40EAF9C686268A6
:1007280022F0030268E7D8F8008098457CD110F0E1
:10073800030FA8F1080300F1FF30F4D17B6823EA26
:1007480004037B6064009C423FF6CAAE002C3FF471
:10075800C7AE234248467FF469AE6400234200F1E5
:100768000400FAD062E6B0F5AA7F18D8E80B773013
:1007780041000BE64FF48051FBE6D8F804309210A4
:100788004FF0010C0CFA02F21343C8F804300A4681
:100798007DE70123C9F804304C4600222CE740F2DB
:1007A800545398421CD8A80C7C304100EEE5103216
:1007B800B4E6542A23D81A0B6E324FEA420C54E797
:1007C800BC68626822F0030216E7CBF30B0000282E
:1007D8007FF4B9AE4244BB6842F001025A60FDE6BC
:1007E800FC217E20D2E501224FF0000AD4E604F174
:1007F8000801304600F080F8DAF80010EEE6B2F5AD
:10080800AA7F04D8DA0B77324FEA420C2DE740F280
:1008180054518A4204D89A0C7C324FEA420C24E79D
:100828004FF0FC0C7E2220E77B688BE72C0400202D
:10083800704700BF704700BF38B5074C0023054616
:1008480008462360FFF742FD431C00D038BD2368EB
:10085800002BFBD02B6038BD90080020F8B5234F43
:100868000C460646FFF7E4FFBB685D6825F0030504
:10087800291B01F6EF7121F47F6121F00F01A1F529
:100888008054B4F5805F07DB30460021FFF7D4FFC2
:10089800BB682B44984204D03046FFF7CBFF0020BA
:1008A800F8BD30466142FFF7C7FF01300DD0104B4D
:1008B800BA6819682D1B45F001053046091B5560BB
:1008C8001960FFF7B7FF0120F8BD30460021FFF798
:1008D800B3FFBA68831A0F2BDEDD064C044924687F
:1008E80043F00103001B53600860D5E72C04002087
:1008F800680800203808002000294ED02DE9F04172
:100908000C468046FFF794FF54F8047C624927F0B0
:100918000102A4F10805AB188E6858689E4220F0C1
:1009280003005AD0FE0758600BD454F8087CED1B1E
:1009380001F1080EAC6874453A4467D0EF68E76087
:10094800BC601C186468E4070CD4544F9C68BC4213
:1009580002447CD0D868E06042F0010384606B6098
:10096800AA5003E042F001036B60AA50B2F5007F81
:1009780014D2D20801EBC20348689F68AF60921096
:10098800012404FA02F21043EB6048609D60FD60A8
:100998004046BDE8F041FFF74DBF7047530A042BAE
:1009A80047D8930903F13804600001EB80003A4905
:1009B8008368834243D0596821F00301914202D9E8
:1009C8009B689842F7D1DA68EA60AB604046956068
:1009D800DD60BDE8F041FFF72DBFFF07024407D4F3
:1009E80054F8083CED1A1A44A868EB68C36098608C
:1009F8002B4B1B6842F001009A4268608D60C7D398
:100A0800284B40461968FFF729FFC1E719184968BC
:100A1800C90709D4D9689B68024442F00100D9602B
:100A28008B606860AA50B3E742F001036B60AA507C
:100A3800AEE7142B14D803F15B046000B5E74A68ED
:100A4800A4100120A04002434A601A46BCE742F0C5
:100A580001034D610D61EC60AC606B60AA5097E7D3
:100A6800542B04D8130B03F16E0460009DE7B3F513
:100A7800AA7F04D8D30B03F17704600095E740F20E
:100A88005450834204D8930C03F17C0460008CE733
:100A9800FC207E2489E700BF2C04002034040020B9
:100AA800340800206408002080B588B000AF012019
:100AB800012100F091F9E023BB6102233B77002379
:100AC800BB7702237B770023FB7707F118032548C0
:100AD800194600F093F823480521052200F034F95F
:100AE80020480621052200F02FF91E48072105227B
:100AF80000F02AF90223BB6101233B770023BB776F
:100B080002237B770123FB7707F118031548194661
:100B180000F074F813480221012200F0FDF84FF4A8
:100B28008050012100F076F90023BB804FF48273D6
:100B3800FB8000233B8100237B810023BB814FF492
:100B48004073FB8108233B8200237B823B1D0648C0
:100B5800194600F07DF90448012100F0BDF920375D
:100B6800BD4680BD000002400030014080B483B023
:100B780000AF0346FB71134BFA7992B29A8100BF1A
:100B8800104B1B899BB203F00203002BF8D000BF67
:100B98000C4B1B899BB203F00103002BF8D000BF5C
:100BA800084B1B899BB203F08003002BF8D1054B3F
:100BB8009B899BB2DBB218460C37BD465DF8047BB7
:100BC800704700BF0030014080B582B000AF0023FD
:100BD800FB71FFF769FF08480221002200F09CF82A
:100BE8000020FFF7C3FF0F20FFF7C0FF02480221D4
:100BF800012200F091F8EEE70000024080B487B0CF
:100C080000AF7860396000237B6100233B610023DB
:100C1800FB6000237B6176E07B69012202FA03F323
:100C28003B613B681A683B691340FB60FA683B69A3
:100C38009A4265D17B681A687B695B001946032371
:100C48008B40DB431A407B681A607B681A683B68F4
:100C58001B7919467B695B0001FA03F31A437B6829
:100C68001A603B681B79012B03D03B681B79022B68
:100C78002ED17B689A687B695B00194603238B40F9
:100C8800DB431A407B689A607B689A683B685B79AB
:100C980019467B695B0001FA03F31A437B689A6083
:100CA8007B685A687B699BB2194601238B40DB43FA
:100CB8001A407B685A607B685B683A68927911468B
:100CC8007A6992B201FA02F292B21A437B685A60C8
:100CD8007B68DA687B699BB25B00032101FA03F346
:100CE800DB431A407B68DA607B68DA683B68DB794B
:100CF80019467B695B0001FA03F31A437B68DA60E3
:100D08007B6901337B617B690F2B85D91C37BD4615
:100D18005DF8047B704700BF80B483B000AF786093
:100D28000B467B8013467B707B78002B03D07B6857
:100D38007A881A8302E07B687A885A830C37BD4622
:100D48005DF8047B704700BF80B485B000AF786061
:100D58000B467B8013467B700023FB600023BB603F
:100D68007B787A8802F0070292009340FB607B88C8
:100D7800DB089BB218467B88DB089BB21A467B6867
:100D8800083253F822207B8803F007039B0019469A
:100D98000F238B40DB4302EA03017B6800F1080262
:100DA80043F822107B88DB089BB21A467B6808321E
:100DB80053F82220FB681343BB607B88DB089BB297
:100DC8001A467B680832B96843F822101437BD46C2
:100DD8005DF8047B704700BF80B483B000AF7860D3
:100DE8000B46FB70FB78002B06D00949084B1A6BA1
:100DF8007B6813430B6306E00549054B1A6B7B6858
:100E0800DB4313400B630C37BD465DF8047B70472A
:100E18000038024080B483B000AF78600B46FB70A6
:100E2800FB78002B06D00949084B5A6C7B681343A2
:100E38004B6406E00549054B5A6C7B68DB4313405D
:100E48004B640C37BD465DF8047B704700380240A0
:100E580080B485B000AF786039600023FB817B687F
:100E68001B88FB81FB8903F44153FB813B681A888B
:100E78003B685B8813439AB23B689B8813439AB2DA
:100E88003B68DB8813439AB23B681B8913439AB2C9
:100E98003B685B8913439AB23B689B8913439AB2B8
:100EA8003B68DB8913439AB2FB891343FB817B6858
:100EB800FA891A807B689B8B9BB223F400639AB2F1
:100EC8007B689A833B681A8A7B681A821437BD4606
:100ED8005DF8047B704700BF80B483B000AF7860D2
:100EE8000B46FB70FB78002B08D07B681B889BB2F5
:100EF80043F040039AB27B681A8007E07B681B883E
:100F08009BB223F040039AB27B681A800C37BD4627
:100F18005DF8047B704700BF002103E00A4B5B5873
:100F28004350043109480A4B42189A42F6D3094AF9
:100F380002E0002342F8043B074B9A42F9D300F041
:100F48000FF8FFF741FE7047F0100008000000207E
:100F58003C0800203C08002094080020FEE7000020
:100F680080B500AF114A114B1B6843F001031360B1
:100F78000E4B00229A600D4A0C4B1B6823F08473B9
:100F880023F480331360094B094A5A60074A074B18
:100F98001B6823F480231360044B0022DA6000F0FE
:100FA8000BF8044B4FF000629A6080BD0038024095
:100FB8001030002400ED00E080B483B000AF0023BF
:100FC8007B6000233B60354A344B1B6843F4803315
:100FD8001360324B1B6803F400333B607B680133BA
:100FE8007B603B68002B03D17B68B3F5A04FF0D141
:100FF8002A4B1B6803F40033002B02D001233B600B
:1010080001E000233B603B68012B42D1234A234B7C
:101018001B6C43F080531364214A214B1B6843F433
:10102800404313601D4A1D4B9B6893601B4A1B4B32
:101038009B6843F400439360184A184B9B6843F439
:10104800A0539360154B174A5A60144A134B1B68F8
:1010580043F08073136000BF104B1B6803F00073EC
:10106800002BF9D0104B40F205721A600B4A0B4B5B
:101078009B6823F003039360084A084B9B6843F07E
:101088000203936000BF054B9B6803F00C03082B19
:10109800F9D10C37BD465DF8047B70470038024033
:1010A80000700040195A4007003C0240024B0146BC
:1010B8001868FFF72BB900BF280400204300000080
:1010C80000000020F8B500BFF8BC08BC9E46704779
:0C10D800F8B500BFF8BC08BC9E4670478D
:0810E400E5010008AD01000860
:0410EC00890100086E
:1010F00000000000EC02002054030020BC0300208C
:1011000000000000000000000000000000000000DF
:1011100000000000000000000000000000000000CF
:1011200000000000C41000080000000000000000E3
:1011300000000000000000000000000000000000AF
:10114000000000000000000000000000000000009F
:10115000000000000000000000000000000000008F
:10116000000000000000000000000000000000007F
:10117000000000000000000000000000000000006F
:10118000000000000000000000000000000000005F
:10119000000000000000000001000000000000004E
:1011A0000E33CDAB34126DE6ECDE05000B00000013
:1011B000000000000000000000000000000000002F
:1011C000000000000000000000000000000000001F
:1011D000000000000000000000000000000000000F
:1011E00000000000000000000000000000000000FF
:1015100000000000000000000000002000000000AB
:10152000000000002C0400202C04002034040020C3
:10153000340400203C0400203C040020440400202B
:10154000440400204C0400204C04002054040020DB
:10155000540400205C0400205C040020640400208B
:10156000640400206C0400206C040020740400203B
:10157000740400207C0400207C04002084040020EB
:10158000840400208C0400208C040020940400209B
:10159000940400209C0400209C040020A40400204B
:1015A000A4040020AC040020AC040020B4040020FB
:1015B000B4040020BC040020BC040020C4040020AB
:1015C000C4040020CC040020CC040020D40400205B
:1015D000D4040020DC040020DC040020E40400200B
:1015E000E4040020EC040020EC040020F4040020BB
:1015F000F4040020FC040020FC040020040500206A
:10160000040500200C0500200C0500201405002016
:10161000140500201C0500201C05002024050020C6
:10162000240500202C0500202C0500203405002076
:10163000340500203C0500203C0500204405002026
:10164000440500204C0500204C05002054050020D6
:10165000540500205C0500205C0500206405002086
:10166000640500206C0500206C0500207405002036
:10167000740500207C0500207C05002084050020E6
:10168000840500208C0500208C0500209405002096
:10169000940500209C0500209C050020A405002046
:1016A000A4050020AC050020AC050020B4050020F6
:1016B000B4050020BC050020BC050020C4050020A6
:1016C000C4050020CC050020CC050020D405002056
:1016D000D4050020DC050020DC050020E405002006
:1016E000E4050020EC050020EC050020F4050020B6
:1016F000F4050020FC050020FC0500200406002065
:10170000040600200C0600200C0600201406002011
:10171000140600201C0600201C06002024060020C1
:10172000240600202C0600202C0600203406002071
:10173000340600203C0600203C0600204406002021
:10174000440600204C0600204C06002054060020D1
:10175000540600205C0600205C0600206406002081
:10176000640600206C0600206C0600207406002031
:10177000740600207C0600207C06002084060020E1
:10178000840600208C0600208C0600209406002091
:10179000940600209C0600209C060020A406002041
:1017A000A4060020AC060020AC060020B4060020F1
:1017B000B4060020BC060020BC060020C4060020A1
:1017C000C4060020CC060020CC060020D406002051
:1017D000D4060020DC060020DC060020E406002001
:1017E000E4060020EC060020EC060020F4060020B1
:1017F000F4060020FC060020FC0600200407002060
:10180000040700200C0700200C070020140700200C
:10181000140700201C0700201C07002024070020BC
:10182000240700202C0700202C070020340700206C
:10183000340700203C0700203C070020440700201C
:10184000440700204C0700204C07002054070020CC
:10185000540700205C0700205C070020640700207C
:10186000640700206C0700206C070020740700202C
:10187000740700207C0700207C07002084070020DC
:10188000840700208C0700208C070020940700208C
:10189000940700209C0700209C070020A40700203C
:1018A000A4070020AC070020AC070020B4070020EC
:1018B000B4070020BC070020BC070020C40700209C
:1018C000C4070020CC070020CC070020D40700204C
:1018D000D4070020DC070020DC070020E4070020FC
:1018E000E4070020EC070020EC070020F4070020AC
:1018F000F4070020FC070020FC070020040800205B
:10190000040800200C0800200C0800201408002007
:10191000140800201C0800201C08002024080020B7
:0C1920002408002000000200FFFFFFFF71
:0400000508000F21BF
:00000001FF
